{
  "contractName": "EventTicketsV2",
  "abi": [
    {
      "constant": true,
      "inputs": [
        {
          "name": "",
          "type": "uint256"
        }
      ],
      "name": "idNumbers",
      "outputs": [
        {
          "name": "",
          "type": "uint256"
        }
      ],
      "payable": false,
      "stateMutability": "view",
      "type": "function"
    },
    {
      "constant": true,
      "inputs": [],
      "name": "owner",
      "outputs": [
        {
          "name": "",
          "type": "address"
        }
      ],
      "payable": false,
      "stateMutability": "view",
      "type": "function"
    },
    {
      "constant": true,
      "inputs": [],
      "name": "idGenerator",
      "outputs": [
        {
          "name": "",
          "type": "uint256"
        }
      ],
      "payable": false,
      "stateMutability": "view",
      "type": "function"
    },
    {
      "inputs": [],
      "payable": false,
      "stateMutability": "nonpayable",
      "type": "constructor"
    },
    {
      "anonymous": false,
      "inputs": [
        {
          "indexed": false,
          "name": "desc",
          "type": "string"
        },
        {
          "indexed": false,
          "name": "url",
          "type": "string"
        },
        {
          "indexed": false,
          "name": "ticketsAvailable",
          "type": "uint256"
        },
        {
          "indexed": false,
          "name": "eventId",
          "type": "uint256"
        }
      ],
      "name": "LogEventAdded",
      "type": "event"
    },
    {
      "anonymous": false,
      "inputs": [
        {
          "indexed": false,
          "name": "buyer",
          "type": "address"
        },
        {
          "indexed": false,
          "name": "eventId",
          "type": "uint256"
        },
        {
          "indexed": false,
          "name": "numTickets",
          "type": "uint256"
        }
      ],
      "name": "LogBuyTickets",
      "type": "event"
    },
    {
      "anonymous": false,
      "inputs": [
        {
          "indexed": false,
          "name": "accountRefunded",
          "type": "address"
        },
        {
          "indexed": false,
          "name": "eventId",
          "type": "uint256"
        },
        {
          "indexed": false,
          "name": "numTickets",
          "type": "uint256"
        }
      ],
      "name": "LogGetRefund",
      "type": "event"
    },
    {
      "anonymous": false,
      "inputs": [
        {
          "indexed": false,
          "name": "owner",
          "type": "address"
        },
        {
          "indexed": false,
          "name": "balance",
          "type": "uint256"
        },
        {
          "indexed": false,
          "name": "eventId",
          "type": "uint256"
        }
      ],
      "name": "LogEndSale",
      "type": "event"
    },
    {
      "constant": false,
      "inputs": [
        {
          "name": "_description",
          "type": "string"
        },
        {
          "name": "_website",
          "type": "string"
        },
        {
          "name": "_totalTickets",
          "type": "uint256"
        }
      ],
      "name": "addEvent",
      "outputs": [
        {
          "name": "",
          "type": "uint256"
        }
      ],
      "payable": false,
      "stateMutability": "nonpayable",
      "type": "function"
    },
    {
      "constant": true,
      "inputs": [
        {
          "name": "_eventID",
          "type": "uint256"
        }
      ],
      "name": "readEvent",
      "outputs": [
        {
          "name": "_description",
          "type": "string"
        },
        {
          "name": "_website",
          "type": "string"
        },
        {
          "name": "_totalTickets",
          "type": "uint256"
        },
        {
          "name": "_sales",
          "type": "uint256"
        },
        {
          "name": "_isOpen",
          "type": "bool"
        }
      ],
      "payable": false,
      "stateMutability": "view",
      "type": "function"
    },
    {
      "constant": false,
      "inputs": [
        {
          "name": "_eventID",
          "type": "uint256"
        },
        {
          "name": "_ticketsPurchased",
          "type": "uint256"
        }
      ],
      "name": "buyTickets",
      "outputs": [],
      "payable": true,
      "stateMutability": "payable",
      "type": "function"
    },
    {
      "constant": false,
      "inputs": [
        {
          "name": "_eventID",
          "type": "uint256"
        }
      ],
      "name": "getRefund",
      "outputs": [],
      "payable": false,
      "stateMutability": "nonpayable",
      "type": "function"
    },
    {
      "constant": true,
      "inputs": [
        {
          "name": "_eventID",
          "type": "uint256"
        }
      ],
      "name": "getBuyerNumberTickets",
      "outputs": [
        {
          "name": "ticketsPurchased",
          "type": "uint256"
        }
      ],
      "payable": false,
      "stateMutability": "view",
      "type": "function"
    },
    {
      "constant": false,
      "inputs": [
        {
          "name": "_eventID",
          "type": "uint256"
        }
      ],
      "name": "endSale",
      "outputs": [],
      "payable": false,
      "stateMutability": "nonpayable",
      "type": "function"
    }
  ],
  "bytecode": "0x6080604052606460005534801561001557600080fd5b5033600160006101000a81548173ffffffffffffffffffffffffffffffffffffffff021916908373ffffffffffffffffffffffffffffffffffffffff16021790555060006002819055506113228061006e6000396000f3fe608060405260043610610099576000357c0100000000000000000000000000000000000000000000000000000000900463ffffffff16806304d1a8461461009e5780631751e91c146100d95780633ddedd38146101285780634da19f20146101775780638627df46146102f45780638da5cb5b1461032c578063d2f0be9914610383578063e1ba30a9146103be578063e7bd92b9146104f7575b600080fd5b3480156100aa57600080fd5b506100d7600480360360208110156100c157600080fd5b8101908080359060200190929190505050610522565b005b3480156100e557600080fd5b50610112600480360360208110156100fc57600080fd5b8101908080359060200190929190505050610767565b6040518082815260200191505060405180910390f35b34801561013457600080fd5b506101616004803603602081101561014b57600080fd5b810190808035906020019092919050505061078a565b6040518082815260200191505060405180910390f35b34801561018357600080fd5b506102de6004803603606081101561019a57600080fd5b81019080803590602001906401000000008111156101b757600080fd5b8201836020820111156101c957600080fd5b803590602001918460018302840111640100000000831117156101eb57600080fd5b91908080601f016020809104026020016040519081016040528093929190818152602001838380828437600081840152601f19601f8201169050808301925050505050505091929192908035906020019064010000000081111561024e57600080fd5b82018360208201111561026057600080fd5b8035906020019184600183028401116401000000008311171561028257600080fd5b91908080601f016020809104026020016040519081016040528093929190818152602001838380828437600081840152601f19601f820116905080830192505050505050509192919290803590602001909291905050506107e7565b6040518082815260200191505060405180910390f35b61032a6004803603604081101561030a57600080fd5b810190808035906020019092919080359060200190929190505050610a31565b005b34801561033857600080fd5b50610341610d30565b604051808273ffffffffffffffffffffffffffffffffffffffff1673ffffffffffffffffffffffffffffffffffffffff16815260200191505060405180910390f35b34801561038f57600080fd5b506103bc600480360360208110156103a657600080fd5b8101908080359060200190929190505050610d56565b005b3480156103ca57600080fd5b506103f7600480360360208110156103e157600080fd5b8101908080359060200190929190505050611042565b60405180806020018060200186815260200185815260200184151515158152602001838103835288818151815260200191508051906020019080838360005b83811015610451578082015181840152602081019050610436565b50505050905090810190601f16801561047e5780820380516001836020036101000a031916815260200191505b50838103825287818151815260200191508051906020019080838360005b838110156104b757808201518184015260208101905061049c565b50505050905090810190601f1680156104e45780820380516001836020036101000a031916815260200191505b5097505050505050505060405180910390f35b34801561050357600080fd5b5061050c611219565b6040518082815260200191505060405180910390f35b806004600082815260200190815260200160002060050160009054906101000a900460ff1615156105bb576040517f08c379a00000000000000000000000000000000000000000000000000000000081526004018080602001828103825260188152602001807f53616c65206f66207469636b657473206e6f77206f766572000000000000000081525060200191505060405180910390fd5b600160009054906101000a900473ffffffffffffffffffffffffffffffffffffffff1673ffffffffffffffffffffffffffffffffffffffff163373ffffffffffffffffffffffffffffffffffffffff1614151561061757600080fd5b60006004600084815260200190815260200160002060050160006101000a81548160ff021916908315150217905550600080546004600085815260200190815260200160002060030154029050600160009054906101000a900473ffffffffffffffffffffffffffffffffffffffff1673ffffffffffffffffffffffffffffffffffffffff166108fc829081150290604051600060405180830381858888f193505050501580156106cc573d6000803e3d6000fd5b507f6497e6dff32a753fe6b3a2b3430e5f86d65c6e35cf360d52eb3494711d7d7a1c600160009054906101000a900473ffffffffffffffffffffffffffffffffffffffff168285604051808473ffffffffffffffffffffffffffffffffffffffff1673ffffffffffffffffffffffffffffffffffffffff168152602001838152602001828152602001935050505060405180910390a1505050565b60038181548110151561077657fe5b906000526020600020016000915090505481565b60006004600083815260200190815260200160002060040160003373ffffffffffffffffffffffffffffffffffffffff1673ffffffffffffffffffffffffffffffffffffffff168152602001908152602001600020549050919050565b6000600160009054906101000a900473ffffffffffffffffffffffffffffffffffffffff1673ffffffffffffffffffffffffffffffffffffffff163373ffffffffffffffffffffffffffffffffffffffff1614151561084557600080fd5b6000600254905060a06040519081016040528086815260200185815260200184815260200160008152602001600115158152506004600083815260200190815260200160002060008201518160000190805190602001906108a792919061121f565b5060208201518160010190805190602001906108c492919061121f565b50604082015181600201556060820151816003015560808201518160050160006101000a81548160ff02191690831515021790555090505060016002600082825401925050819055507f7d1d82c13762b51876068c852c5d404d0fa38fb615c14eebefafb60bdb4bd1b285858584604051808060200180602001858152602001848152602001838103835287818151815260200191508051906020019080838360005b83811015610982578082015181840152602081019050610967565b50505050905090810190601f1680156109af5780820380516001836020036101000a031916815260200191505b50838103825286818151815260200191508051906020019080838360005b838110156109e85780820151818401526020810190506109cd565b50505050905090810190601f168015610a155780820380516001836020036101000a031916815260200191505b50965050505050505060405180910390a1809150509392505050565b816004600082815260200190815260200160002060050160009054906101000a900460ff161515610aca576040517f08c379a00000000000000000000000000000000000000000000000000000000081526004018080602001828103825260188152602001807f53616c65206f66207469636b657473206e6f77206f766572000000000000000081525060200191505060405180910390fd5b60005482023410151515610b46576040517f08c379a00000000000000000000000000000000000000000000000000000000081526004018080602001828103825260148152602001807f4e6f742073756666696369656e742066756e647300000000000000000000000081525060200191505060405180910390fd5b81600460008581526020019081526020016000206003015460046000868152602001908152602001600020600201540310151515610bec576040517f08c379a000000000000000000000000000000000000000000000000000000000815260040180806020018281038252601e8152602001807f4e6f7420656e6f756768207469636b657473206c6566742c20736f727279000081525060200191505060405180910390fd5b6000600460008581526020019081526020016000209050828160040160003373ffffffffffffffffffffffffffffffffffffffff1673ffffffffffffffffffffffffffffffffffffffff1681526020019081526020016000206000828254019250508190555082816003016000828254019250508190555060008360005402340390503373ffffffffffffffffffffffffffffffffffffffff166108fc829081150290604051600060405180830381858888f19350505050158015610cb5573d6000803e3d6000fd5b507f15827fa78fedf80f93aa72ce61e705b1362cab60ae596b1bb327076fc3856c24338686604051808473ffffffffffffffffffffffffffffffffffffffff1673ffffffffffffffffffffffffffffffffffffffff168152602001838152602001828152602001935050505060405180910390a15050505050565b600160009054906101000a900473ffffffffffffffffffffffffffffffffffffffff1681565b806004600082815260200190815260200160002060050160009054906101000a900460ff161515610def576040517f08c379a00000000000000000000000000000000000000000000000000000000081526004018080602001828103825260188152602001807f53616c65206f66207469636b657473206e6f77206f766572000000000000000081525060200191505060405180910390fd5b60006004600084815260200190815260200160002060040160003373ffffffffffffffffffffffffffffffffffffffff1673ffffffffffffffffffffffffffffffffffffffff16815260200190815260200160002054111515610eba576040517f08c379a000000000000000000000000000000000000000000000000000000000815260040180806020018281038252601b8152602001807f596f7520646f206e6f74206861766520616e79207469636b657473000000000081525060200191505060405180910390fd5b600060046000848152602001908152602001600020905060008160040160003373ffffffffffffffffffffffffffffffffffffffff1673ffffffffffffffffffffffffffffffffffffffff168152602001908152602001600020549050808260040160003373ffffffffffffffffffffffffffffffffffffffff1673ffffffffffffffffffffffffffffffffffffffff168152602001908152602001600020600082825403925050819055508082600301600082825403925050819055506000816000540290503373ffffffffffffffffffffffffffffffffffffffff166108fc829081150290604051600060405180830381858888f19350505050158015610fc7573d6000803e3d6000fd5b507f73ebb2050cb3ee6869929e7a26925e92e201f14902e155037f1f90af931b3233338684604051808473ffffffffffffffffffffffffffffffffffffffff1673ffffffffffffffffffffffffffffffffffffffff168152602001838152602001828152602001935050505060405180910390a15050505050565b606080600080600061105261129f565b6004600088815260200190815260200160002060a06040519081016040529081600082018054600181600116156101000203166002900480601f01602080910402602001604051908101604052809291908181526020018280546001816001161561010002031660029004801561110a5780601f106110df5761010080835404028352916020019161110a565b820191906000526020600020905b8154815290600101906020018083116110ed57829003601f168201915b50505050508152602001600182018054600181600116156101000203166002900480601f0160208091040260200160405190810160405280929190818152602001828054600181600116156101000203166002900480156111ac5780601f10611181576101008083540402835291602001916111ac565b820191906000526020600020905b81548152906001019060200180831161118f57829003601f168201915b5050505050815260200160028201548152602001600382015481526020016005820160009054906101000a900460ff161515151581525050905080600001518160200151826040015183606001518460800151849450839350955095509550955095505091939590929450565b60025481565b828054600181600116156101000203166002900490600052602060002090601f016020900481019282601f1061126057805160ff191683800117855561128e565b8280016001018555821561128e579182015b8281111561128d578251825591602001919060010190611272565b5b50905061129b91906112d1565b5090565b60a060405190810160405280606081526020016060815260200160008152602001600081526020016000151581525090565b6112f391905b808211156112ef5760008160009055506001016112d7565b5090565b9056fea165627a7a72305820118ff2fb3c24ab862c06551a4e88c53cc7f77f604ba78a5745fd5f73da8f50c60029",
  "source": "pragma solidity ^0.5.0;\r\n\r\n/*\r\n    The EventTicketsV2 contract keeps track of the details and ticket sales of multiple events.\r\n */\r\ncontract EventTicketsV2 {\r\n\r\n    /*\r\n        Define an public owner variable. Set it to the creator of the contract when it is initialized.\r\n    */\r\n    uint   PRICE_TICKET = 100 wei;\r\n    address payable public owner;\r\n/*\r\n    Create a variable to keep track of the event ID numbers.\r\n*/\r\n    uint public idGenerator;\r\n    uint[] public idNumbers;\r\n/*\r\n    Define an Event struct, similar to the V1 of this contract.\r\n    The struct has 6 fields: description, website (URL), totalTickets, sales, buyers, and isOpen.\r\n    Choose the appropriate variable type for each field.\r\n    The \"buyers\" field should keep track of addresses and how many tickets each buyer purchases.\r\n*/\r\n    struct Event {\r\n    string description;\r\n    string website;\r\n    uint totalTickets;\r\n    uint sales;\r\n    mapping(address => uint) buyers;\r\n    bool isOpen;\r\n}\r\n/*\r\n    Create a mapping to keep track of the events.\r\n    The mapping key is an integer, the value is an Event struct.\r\n    Call the mapping \"events\".\r\n*/\r\n    mapping(uint => Event) events;\r\n\r\n    event LogEventAdded(string desc, string url, uint ticketsAvailable, uint eventId);\r\n    event LogBuyTickets(address buyer, uint eventId, uint numTickets);\r\n    event LogGetRefund(address accountRefunded, uint eventId, uint numTickets);\r\n    event LogEndSale(address owner, uint balance, uint eventId);\r\n\r\n/*\r\n    Create a modifier that throws an error if the msg.sender is not the owner.\r\n*/\r\n    modifier onlyOwner(){require(msg.sender == owner); _;}\r\n    modifier isOpen(uint _eventID){require(events[_eventID].isOpen, \"Sale of tickets now over\"); _;}\r\n\r\n    constructor() public{\r\n        owner = msg.sender;\r\n        idGenerator = 0;\r\n    }\r\n/*\r\n    Define a function called addEvent().\r\n    This function takes 3 parameters, an event description, a URL, and a number of tickets.\r\n    Only the contract owner should be able to call this function.\r\n    In the function:\r\n        - Set the description, URL and ticket number in a new event.\r\n        - set the event to open\r\n        - set an event ID\r\n        - increment the ID\r\n        - emit the appropriate event\r\n        - return the event's ID\r\n*/\r\n    function addEvent(string memory _description, string memory _website, uint _totalTickets) public onlyOwner returns(uint){\r\n    uint eventID = idGenerator;\r\n    events[eventID] = Event({description: _description, website: _website, totalTickets: _totalTickets, sales: 0, isOpen: true});\r\n    idGenerator += 1;\r\n    emit LogEventAdded(_description, _website, _totalTickets, eventID);\r\n    return(eventID);\r\n    }\r\n/*\r\n    Define a function called readEvent().\r\n    This function takes one parameter, the event ID.\r\n    The function returns information about the event this order:\r\n        1. description\r\n        2. URL\r\n        3. tickets available\r\n        4. sales\r\n        5. isOpen\r\n*/\r\n    function readEvent(uint _eventID) public view returns(string memory _description, string memory _website, uint _totalTickets, uint _sales, bool _isOpen)\r\n    {\r\n    Event memory myEvent = events[_eventID];\r\n    return(myEvent.description, myEvent.website, myEvent.totalTickets, myEvent.sales, myEvent.isOpen);\r\n    }\r\n/*\r\n    Define a function called buyTickets().\r\n    This function allows users to buy tickets for a specific event.\r\n    This function takes 2 parameters, an event ID and a number of tickets.\r\n    The function checks:\r\n        - that the event sales are open\r\n        - that the transaction value is sufficient to purchase the number of tickets\r\n        - that there are enough tickets available to complete the purchase\r\n    The function:\r\n        - increments the purchasers ticket count\r\n        - increments the ticket sale count\r\n        - refunds any surplus value sent\r\n        - emits the appropriate event\r\n*/\r\n    function buyTickets(uint _eventID, uint _ticketsPurchased) public payable isOpen(_eventID) {\r\n    require(msg.value >= _ticketsPurchased * PRICE_TICKET, \"Not sufficient funds\");\r\n    require(events[_eventID].totalTickets - events[_eventID].sales >= _ticketsPurchased, \"Not enough tickets left, sorry\");\r\n\r\n    Event storage myEvent = events[_eventID];\r\n    myEvent.buyers[msg.sender] += _ticketsPurchased;\r\n    myEvent.sales += _ticketsPurchased;\r\n    uint amountToRefund = msg.value - (PRICE_TICKET *_ticketsPurchased);\r\n    msg.sender.transfer(amountToRefund);\r\n    emit LogBuyTickets(msg.sender, _eventID, _ticketsPurchased);\r\n    }\r\n/*\r\n    Define a function called getRefund().\r\n    This function allows users to request a refund for a specific event.\r\n    This function takes one parameter, the event ID.\r\n    TODO:\r\n        - check that a user has purchased tickets for the event\r\n        - remove refunded tickets from the sold count\r\n        - send appropriate value to the refund requester\r\n        - emit the appropriate event\r\n*/\r\n\r\n//we are refunding all the tickets I guess \"just one parameter event ID\"\r\n    function getRefund(uint _eventID) public isOpen(_eventID){\r\n    require(events[_eventID].buyers[msg.sender] > 0, \"You do not have any tickets\");\r\n//require(events[_eventID].buyers[msg.sender] > _ticketsRefunded, \"You do not have any tickets\");\r\n\r\n    Event storage myEvent = events[_eventID];\r\n    uint ticketsOwned = myEvent.buyers[msg.sender];\r\n    myEvent.buyers[msg.sender] -= ticketsOwned;\r\n    myEvent.sales -= ticketsOwned;\r\n    uint amountToRefund = PRICE_TICKET * ticketsOwned;\r\n    msg.sender.transfer(amountToRefund);\r\n    emit LogGetRefund(msg.sender, _eventID, ticketsOwned);\r\n    }\r\n/*\r\n    Define a function called getBuyerNumberTickets()\r\n    This function takes one parameter, an event ID\r\n    This function returns a uint, the number of tickets that the msg.sender has purchased.\r\n*/\r\n    function getBuyerNumberTickets(uint _eventID) public view returns(uint ticketsPurchased)\r\n    {\r\n    return(events[_eventID].buyers[msg.sender]);\r\n    }\r\n/*\r\n    Define a function called endSale()\r\n    This function takes one parameter, the event ID\r\n    Only the contract owner can call this function\r\n    TODO:\r\n        - close event sales\r\n        - transfer the balance from those event sales to the contract owner\r\n        - emit the appropriate event\r\n*/\r\nfunction endSale(uint _eventID) public isOpen(_eventID) onlyOwner{\r\n    events[_eventID].isOpen = false;\r\n    uint _profits = events[_eventID].sales * PRICE_TICKET;\r\n    owner.transfer(_profits);\r\n    emit LogEndSale(owner, _profits, _eventID);\r\n    }\r\n}",
  "sourcePath": "C:/Users/Moosa Khan/Desktop/Assignment3/event-tickets-exercise-khanmuhammadmoosa/contracts/EventTicketsV2.sol",
  "compiler": {
    "name": "solc",
    "version": "0.5.0+commit.1d4f565a.Emscripten.clang"
  },
  "schemaVersion": "3.0.9",
  "updatedAt": "2019-07-10T20:08:14.023Z",
  "devdoc": {
    "methods": {}
  },
  "userdoc": {
    "methods": {}
  }
}